{
  "contractName": "CreateCryptonumbers",
  "abi": [
    {
      "constant": false,
      "inputs": [],
      "name": "renounceOwnership",
      "outputs": [],
      "payable": false,
      "stateMutability": "nonpayable",
      "type": "function"
    },
    {
      "constant": true,
      "inputs": [],
      "name": "owner",
      "outputs": [
        {
          "name": "",
          "type": "address"
        }
      ],
      "payable": false,
      "stateMutability": "view",
      "type": "function"
    },
    {
      "constant": true,
      "inputs": [
        {
          "name": "",
          "type": "uint256"
        }
      ],
      "name": "numbers",
      "outputs": [
        {
          "name": "numberId",
          "type": "uint256"
        },
        {
          "name": "hashNumber",
          "type": "uint256"
        }
      ],
      "payable": false,
      "stateMutability": "view",
      "type": "function"
    },
    {
      "constant": false,
      "inputs": [
        {
          "name": "_newOwner",
          "type": "address"
        }
      ],
      "name": "transferOwnership",
      "outputs": [],
      "payable": false,
      "stateMutability": "nonpayable",
      "type": "function"
    },
    {
      "anonymous": false,
      "inputs": [
        {
          "indexed": false,
          "name": "numberId",
          "type": "uint256"
        },
        {
          "indexed": false,
          "name": "tokenId",
          "type": "uint256"
        }
      ],
      "name": "NewNumber",
      "type": "event"
    },
    {
      "anonymous": false,
      "inputs": [
        {
          "indexed": true,
          "name": "previousOwner",
          "type": "address"
        }
      ],
      "name": "OwnershipRenounced",
      "type": "event"
    },
    {
      "anonymous": false,
      "inputs": [
        {
          "indexed": true,
          "name": "previousOwner",
          "type": "address"
        },
        {
          "indexed": true,
          "name": "newOwner",
          "type": "address"
        }
      ],
      "name": "OwnershipTransferred",
      "type": "event"
    },
    {
      "constant": false,
      "inputs": [
        {
          "name": "_name",
          "type": "uint256"
        }
      ],
      "name": "createRandomNumber",
      "outputs": [
        {
          "name": "",
          "type": "uint256"
        }
      ],
      "payable": false,
      "stateMutability": "nonpayable",
      "type": "function"
    }
  ],
  "bytecode": "0x60806040526010600155600154600a0a600255336000806101000a81548173ffffffffffffffffffffffffffffffffffffffff021916908373ffffffffffffffffffffffffffffffffffffffff16021790555061070f806100616000396000f30060806040526004361061006d576000357c0100000000000000000000000000000000000000000000000000000000900463ffffffff168063715018a6146100725780638da5cb5b14610089578063acefd330146100e0578063d39fa23314610121578063f2fde38b14610169575b600080fd5b34801561007e57600080fd5b506100876101ac565b005b34801561009557600080fd5b5061009e6102ae565b604051808273ffffffffffffffffffffffffffffffffffffffff1673ffffffffffffffffffffffffffffffffffffffff16815260200191505060405180910390f35b3480156100ec57600080fd5b5061010b600480360381019080803590602001909291905050506102d3565b6040518082815260200191505060405180910390f35b34801561012d57600080fd5b5061014c60048036038101908080359060200190929190505050610305565b604051808381526020018281526020019250505060405180910390f35b34801561017557600080fd5b506101aa600480360381019080803573ffffffffffffffffffffffffffffffffffffffff169060200190929190505050610338565b005b6000809054906101000a900473ffffffffffffffffffffffffffffffffffffffff1673ffffffffffffffffffffffffffffffffffffffff163373ffffffffffffffffffffffffffffffffffffffff1614151561020757600080fd5b6000809054906101000a900473ffffffffffffffffffffffffffffffffffffffff1673ffffffffffffffffffffffffffffffffffffffff167ff8df31144d9c2f0f6b59d69b8b98abd5459d07f2742c4df920b25aae33c6482060405160405180910390a260008060006101000a81548173ffffffffffffffffffffffffffffffffffffffff021916908373ffffffffffffffffffffffffffffffffffffffff160217905550565b6000809054906101000a900473ffffffffffffffffffffffffffffffffffffffff1681565b6000806102df8361039f565b90506064818115156102ed57fe5b06810390506102fc8382610440565b80915050919050565b60038181548110151561031457fe5b90600052602060002090600202016000915090508060000154908060010154905082565b6000809054906101000a900473ffffffffffffffffffffffffffffffffffffffff1673ffffffffffffffffffffffffffffffffffffffff163373ffffffffffffffffffffffffffffffffffffffff1614151561039357600080fd5b61039c816105cb565b50565b60008082604051602001808281526020019150506040516020818303038152906040526040518082805190602001908083835b6020831015156103f757805182526020820191506020810190506020830392506103d2565b6001836020036101000a03801982511681845116808217855250505050505090500191505060405180910390206001900490506002548181151561043757fe5b06915050919050565b6000600160036040805190810160405280868152602001858152509080600181540180825580915050906001820390600052602060002090600202016000909192909190915060008201518160000155602082015181600101555050039050336004600083815260200190815260200160002060006101000a81548173ffffffffffffffffffffffffffffffffffffffff021916908373ffffffffffffffffffffffffffffffffffffffff1602179055506105446001600560003373ffffffffffffffffffffffffffffffffffffffff1673ffffffffffffffffffffffffffffffffffffffff168152602001908152602001600020546106c590919063ffffffff16565b600560003373ffffffffffffffffffffffffffffffffffffffff1673ffffffffffffffffffffffffffffffffffffffff168152602001908152602001600020819055507f106fa6f2c75933537eeb1c8a0616320c8263d93cdd3ebd0f78a338dcb2cfdcd68183604051808381526020018281526020019250505060405180910390a1505050565b600073ffffffffffffffffffffffffffffffffffffffff168173ffffffffffffffffffffffffffffffffffffffff161415151561060757600080fd5b8073ffffffffffffffffffffffffffffffffffffffff166000809054906101000a900473ffffffffffffffffffffffffffffffffffffffff1673ffffffffffffffffffffffffffffffffffffffff167f8be0079c531659141344cd1fd0a4f28419497f9722a3daafe3b4186f6b6457e060405160405180910390a3806000806101000a81548173ffffffffffffffffffffffffffffffffffffffff021916908373ffffffffffffffffffffffffffffffffffffffff16021790555050565b60008082840190508381101515156106d957fe5b80915050929150505600a165627a7a723058204a38f912d703817cb3cc635e27f7391eb2585fa0025fb22e3e1987545f2bd9630029",
  "source": "pragma solidity ^0.4.23;\n\nimport \"./Ownable.sol\";\nimport \"./SafeMath.sol\";\n\ncontract CreateCryptonumbers is Ownable {\n\n  using SafeMath for uint256;\n\n  event NewNumber(uint numberId, uint tokenId);\n\n  uint hashDigits = 16;\n  uint hashModulus = 10 ** hashDigits;\n\n  struct Number {\n    uint numberId;\n    uint hashNumber;\n  }\n\n  Number[] public numbers;\n\n  mapping (uint => address)  numberToOwner;\n  mapping (address => uint) ownerNumberCount;\n\n\n\n  function _createNumber(uint _numberId, uint _hashNumber) internal {\n    uint id = numbers.push(Number(_numberId, _hashNumber)) - 1;\n    numberToOwner[id] = msg.sender;\n    ownerNumberCount[msg.sender] = ownerNumberCount[msg.sender].add(1);\n    emit NewNumber(id, _hashNumber);\n  }\n\n  function _generateRandomhashNumber(uint _str) private view returns (uint) {\n    uint rand = uint(keccak256(abi.encodePacked(_str)));\n    return rand % hashModulus;\n  }\n\n  function createRandomNumber(uint _name) public returns (uint){\n    //require(ownerNumberCount[msg.sender] == 0);\n    uint randhash = _generateRandomhashNumber(_name);\n    randhash = randhash - randhash % 100;\n    _createNumber(_name, randhash);\n    return randhash;\n  }\n\n\n}\n                       \n\n",
  "sourcePath": "/home/jacg/Github-tanogedler/cryptonumbers/contracts/CreateCryptonumbers.sol",
  "compiler": {
    "name": "solc",
    "version": "0.4.24+commit.e67f0147.Emscripten.clang"
  },
  "schemaVersion": "2.0.1",
  "updatedAt": "2018-08-29T19:49:31.630Z"
}