{
  "contractName": "CreateCryptonumbers",
  "abi": [
    {
      "constant": false,
      "inputs": [],
      "name": "renounceOwnership",
      "outputs": [],
      "payable": false,
      "stateMutability": "nonpayable",
      "type": "function"
    },
    {
      "constant": true,
      "inputs": [],
      "name": "owner",
      "outputs": [
        {
          "name": "",
          "type": "address"
        }
      ],
      "payable": false,
      "stateMutability": "view",
      "type": "function"
    },
    {
      "constant": true,
      "inputs": [
        {
          "name": "",
          "type": "uint256"
        }
      ],
      "name": "numberToOwner",
      "outputs": [
        {
          "name": "",
          "type": "address"
        }
      ],
      "payable": false,
      "stateMutability": "view",
      "type": "function"
    },
    {
      "constant": true,
      "inputs": [
        {
          "name": "",
          "type": "uint256"
        }
      ],
      "name": "numbers",
      "outputs": [
        {
          "name": "name",
          "type": "string"
        },
        {
          "name": "hashNumber",
          "type": "uint256"
        }
      ],
      "payable": false,
      "stateMutability": "view",
      "type": "function"
    },
    {
      "constant": false,
      "inputs": [
        {
          "name": "_newOwner",
          "type": "address"
        }
      ],
      "name": "transferOwnership",
      "outputs": [],
      "payable": false,
      "stateMutability": "nonpayable",
      "type": "function"
    },
    {
      "anonymous": false,
      "inputs": [
        {
          "indexed": false,
          "name": "numberId",
          "type": "uint256"
        },
        {
          "indexed": false,
          "name": "name",
          "type": "string"
        },
        {
          "indexed": false,
          "name": "hashNumber",
          "type": "uint256"
        }
      ],
      "name": "NewNumber",
      "type": "event"
    },
    {
      "anonymous": false,
      "inputs": [
        {
          "indexed": true,
          "name": "previousOwner",
          "type": "address"
        }
      ],
      "name": "OwnershipRenounced",
      "type": "event"
    },
    {
      "anonymous": false,
      "inputs": [
        {
          "indexed": true,
          "name": "previousOwner",
          "type": "address"
        },
        {
          "indexed": true,
          "name": "newOwner",
          "type": "address"
        }
      ],
      "name": "OwnershipTransferred",
      "type": "event"
    },
    {
      "constant": false,
      "inputs": [
        {
          "name": "_name",
          "type": "string"
        }
      ],
      "name": "createRandomNumber",
      "outputs": [],
      "payable": false,
      "stateMutability": "nonpayable",
      "type": "function"
    }
  ],
  "bytecode": "0x60806040526010600155600154600a0a600255336000806101000a81548173ffffffffffffffffffffffffffffffffffffffff021916908373ffffffffffffffffffffffffffffffffffffffff160217905550610a98806100616000396000f300608060405260043610610078576000357c0100000000000000000000000000000000000000000000000000000000900463ffffffff168063451267111461007d578063715018a6146100e65780638da5cb5b146100fd578063a306f08914610154578063d39fa233146101c1578063f2fde38b1461026e575b600080fd5b34801561008957600080fd5b506100e4600480360381019080803590602001908201803590602001908080601f01602080910402602001604051908101604052809392919081815260200183838082843782019150505050505091929192905050506102b1565b005b3480156100f257600080fd5b506100fb61032a565b005b34801561010957600080fd5b5061011261042c565b604051808273ffffffffffffffffffffffffffffffffffffffff1673ffffffffffffffffffffffffffffffffffffffff16815260200191505060405180910390f35b34801561016057600080fd5b5061017f60048036038101908080359060200190929190505050610451565b604051808273ffffffffffffffffffffffffffffffffffffffff1673ffffffffffffffffffffffffffffffffffffffff16815260200191505060405180910390f35b3480156101cd57600080fd5b506101ec60048036038101908080359060200190929190505050610484565b6040518080602001838152602001828103825284818151815260200191508051906020019080838360005b83811015610232578082015181840152602081019050610217565b50505050905090810190601f16801561025f5780820380516001836020036101000a031916815260200191505b50935050505060405180910390f35b34801561027a57600080fd5b506102af600480360381019080803573ffffffffffffffffffffffffffffffffffffffff16906020019092919050505061054f565b005b600080600560003373ffffffffffffffffffffffffffffffffffffffff1673ffffffffffffffffffffffffffffffffffffffff1681526020019081526020016000205414151561030057600080fd5b610309826105b6565b905060648181151561031757fe5b068103905061032682826106a4565b5050565b6000809054906101000a900473ffffffffffffffffffffffffffffffffffffffff1673ffffffffffffffffffffffffffffffffffffffff163373ffffffffffffffffffffffffffffffffffffffff1614151561038557600080fd5b6000809054906101000a900473ffffffffffffffffffffffffffffffffffffffff1673ffffffffffffffffffffffffffffffffffffffff167ff8df31144d9c2f0f6b59d69b8b98abd5459d07f2742c4df920b25aae33c6482060405160405180910390a260008060006101000a81548173ffffffffffffffffffffffffffffffffffffffff021916908373ffffffffffffffffffffffffffffffffffffffff160217905550565b6000809054906101000a900473ffffffffffffffffffffffffffffffffffffffff1681565b60046020528060005260406000206000915054906101000a900473ffffffffffffffffffffffffffffffffffffffff1681565b60038181548110151561049357fe5b9060005260206000209060020201600091509050806000018054600181600116156101000203166002900480601f01602080910402602001604051908101604052809291908181526020018280546001816001161561010002031660029004801561053f5780601f106105145761010080835404028352916020019161053f565b820191906000526020600020905b81548152906001019060200180831161052257829003601f168201915b5050505050908060010154905082565b6000809054906101000a900473ffffffffffffffffffffffffffffffffffffffff1673ffffffffffffffffffffffffffffffffffffffff163373ffffffffffffffffffffffffffffffffffffffff161415156105aa57600080fd5b6105b3816108af565b50565b600080826040516020018082805190602001908083835b6020831015156105f257805182526020820191506020810190506020830392506105cd565b6001836020036101000a0380198251168184511680821785525050505050509050019150506040516020818303038152906040526040518082805190602001908083835b60208310151561065b5780518252602082019150602081019050602083039250610636565b6001836020036101000a03801982511681845116808217855250505050505090500191505060405180910390206001900490506002548181151561069b57fe5b06915050919050565b6000600160036040805190810160405280868152602001858152509080600181540180825580915050906001820390600052602060002090600202016000909192909190915060008201518160000190805190602001906107069291906109c7565b50602082015181600101555050039050336004600083815260200190815260200160002060006101000a81548173ffffffffffffffffffffffffffffffffffffffff021916908373ffffffffffffffffffffffffffffffffffffffff1602179055506107bb6001600560003373ffffffffffffffffffffffffffffffffffffffff1673ffffffffffffffffffffffffffffffffffffffff168152602001908152602001600020546109a990919063ffffffff16565b600560003373ffffffffffffffffffffffffffffffffffffffff1673ffffffffffffffffffffffffffffffffffffffff168152602001908152602001600020819055507fc53baabaae0054d4bc6b85290c13514607b58dda92fbf93bc6fa4688165589808184846040518084815260200180602001838152602001828103825284818151815260200191508051906020019080838360005b8381101561086e578082015181840152602081019050610853565b50505050905090810190601f16801561089b5780820380516001836020036101000a031916815260200191505b5094505050505060405180910390a1505050565b600073ffffffffffffffffffffffffffffffffffffffff168173ffffffffffffffffffffffffffffffffffffffff16141515156108eb57600080fd5b8073ffffffffffffffffffffffffffffffffffffffff166000809054906101000a900473ffffffffffffffffffffffffffffffffffffffff1673ffffffffffffffffffffffffffffffffffffffff167f8be0079c531659141344cd1fd0a4f28419497f9722a3daafe3b4186f6b6457e060405160405180910390a3806000806101000a81548173ffffffffffffffffffffffffffffffffffffffff021916908373ffffffffffffffffffffffffffffffffffffffff16021790555050565b60008082840190508381101515156109bd57fe5b8091505092915050565b828054600181600116156101000203166002900490600052602060002090601f016020900481019282601f10610a0857805160ff1916838001178555610a36565b82800160010185558215610a36579182015b82811115610a35578251825591602001919060010190610a1a565b5b509050610a439190610a47565b5090565b610a6991905b80821115610a65576000816000905550600101610a4d565b5090565b905600a165627a7a72305820a145a17040bd4d930d47ca0ea1a36ca967d6d14bd62de70efc4ca9914b915bc20029",
  "source": "pragma solidity ^0.4.23;\n\nimport \"./Ownable.sol\";\nimport \"./SafeMath.sol\";\n\ncontract CreateCryptonumbers is Ownable {\n\n  using SafeMath for uint256;\n\n  event NewNumber(uint numberId, string name, uint hashNumber);\n\n  uint hashDigits = 16;\n  uint hashModulus = 10 ** hashDigits;\n\n  struct Number {\n    string name;\n    uint hashNumber;\n  }\n\n  Number[] public numbers;\n\n  mapping (uint => address) public numberToOwner;\n  mapping (address => uint) ownerNumberCount;\n\n  function _createNumber(string _name, uint _hashNumber) internal {\n    uint id = numbers.push(Number(_name, _hashNumber)) - 1;\n    numberToOwner[id] = msg.sender;\n    ownerNumberCount[msg.sender] = ownerNumberCount[msg.sender].add(1);\n    emit NewNumber(id, _name, _hashNumber);\n  }\n\n  function _generateRandomhashNumber(string _str) private view returns (uint) {\n    uint rand = uint(keccak256(abi.encodePacked(_str)));\n    return rand % hashModulus;\n  }\n\n  function createRandomNumber(string _name) public {\n    require(ownerNumberCount[msg.sender] == 0);\n    uint randhash = _generateRandomhashNumber(_name);\n    randhash = randhash - randhash % 100;\n    _createNumber(_name, randhash);\n  }\n\n}\n\n\n",
  "sourcePath": "/home/jacg/Github-tanogedler/cryptonumbers/contracts/CreateCryptonumbers.sol",
  "compiler": {
    "name": "solc",
    "version": "0.4.24+commit.e67f0147.Emscripten.clang"
  },
  "schemaVersion": "2.0.1",
  "updatedAt": "2018-08-28T11:47:38.913Z"
}